{
  "contractName": "MergerResource",
  "abi": [
    {
      "constant": true,
      "inputs": [],
      "name": "name",
      "outputs": [
        {
          "name": "",
          "type": "string"
        }
      ],
      "payable": false,
      "stateMutability": "view",
      "type": "function"
    },
    {
      "constant": false,
      "inputs": [
        {
          "name": "spender",
          "type": "address"
        },
        {
          "name": "tokens",
          "type": "uint256"
        }
      ],
      "name": "approve",
      "outputs": [
        {
          "name": "success",
          "type": "bool"
        }
      ],
      "payable": false,
      "stateMutability": "nonpayable",
      "type": "function"
    },
    {
      "constant": true,
      "inputs": [
        {
          "name": "",
          "type": "uint256"
        }
      ],
      "name": "levelUpgradeCost",
      "outputs": [
        {
          "name": "",
          "type": "uint256"
        }
      ],
      "payable": false,
      "stateMutability": "view",
      "type": "function"
    },
    {
      "constant": true,
      "inputs": [],
      "name": "totalSupply",
      "outputs": [
        {
          "name": "",
          "type": "uint256"
        }
      ],
      "payable": false,
      "stateMutability": "view",
      "type": "function"
    },
    {
      "constant": true,
      "inputs": [
        {
          "name": "",
          "type": "address"
        }
      ],
      "name": "addressAllowedToGetTokenAfterSeconds",
      "outputs": [
        {
          "name": "",
          "type": "uint256"
        }
      ],
      "payable": false,
      "stateMutability": "view",
      "type": "function"
    },
    {
      "constant": false,
      "inputs": [
        {
          "name": "from",
          "type": "address"
        },
        {
          "name": "to",
          "type": "address"
        },
        {
          "name": "tokens",
          "type": "uint256"
        }
      ],
      "name": "transferFrom",
      "outputs": [
        {
          "name": "success",
          "type": "bool"
        }
      ],
      "payable": false,
      "stateMutability": "nonpayable",
      "type": "function"
    },
    {
      "constant": true,
      "inputs": [],
      "name": "decimals",
      "outputs": [
        {
          "name": "",
          "type": "uint8"
        }
      ],
      "payable": false,
      "stateMutability": "view",
      "type": "function"
    },
    {
      "constant": true,
      "inputs": [
        {
          "name": "",
          "type": "uint256"
        }
      ],
      "name": "levelProductionTime",
      "outputs": [
        {
          "name": "",
          "type": "uint256"
        }
      ],
      "payable": false,
      "stateMutability": "view",
      "type": "function"
    },
    {
      "constant": true,
      "inputs": [
        {
          "name": "",
          "type": "uint256"
        }
      ],
      "name": "tokensNecessary",
      "outputs": [
        {
          "name": "originOfToken",
          "type": "address"
        },
        {
          "name": "amountNecessary",
          "type": "uint256"
        }
      ],
      "payable": false,
      "stateMutability": "view",
      "type": "function"
    },
    {
      "constant": true,
      "inputs": [
        {
          "name": "tokenOwner",
          "type": "address"
        }
      ],
      "name": "balanceOf",
      "outputs": [
        {
          "name": "balance",
          "type": "uint256"
        }
      ],
      "payable": false,
      "stateMutability": "view",
      "type": "function"
    },
    {
      "constant": false,
      "inputs": [],
      "name": "acceptOwnership",
      "outputs": [],
      "payable": false,
      "stateMutability": "nonpayable",
      "type": "function"
    },
    {
      "constant": true,
      "inputs": [],
      "name": "pricePerToken",
      "outputs": [
        {
          "name": "",
          "type": "uint256"
        }
      ],
      "payable": false,
      "stateMutability": "view",
      "type": "function"
    },
    {
      "constant": true,
      "inputs": [
        {
          "name": "",
          "type": "uint256"
        }
      ],
      "name": "levelProductionAmount",
      "outputs": [
        {
          "name": "",
          "type": "uint256"
        }
      ],
      "payable": false,
      "stateMutability": "view",
      "type": "function"
    },
    {
      "constant": true,
      "inputs": [],
      "name": "owner",
      "outputs": [
        {
          "name": "",
          "type": "address"
        }
      ],
      "payable": false,
      "stateMutability": "view",
      "type": "function"
    },
    {
      "constant": true,
      "inputs": [],
      "name": "symbol",
      "outputs": [
        {
          "name": "",
          "type": "string"
        }
      ],
      "payable": false,
      "stateMutability": "view",
      "type": "function"
    },
    {
      "constant": true,
      "inputs": [
        {
          "name": "",
          "type": "address"
        }
      ],
      "name": "factoryLevel",
      "outputs": [
        {
          "name": "",
          "type": "uint256"
        }
      ],
      "payable": false,
      "stateMutability": "view",
      "type": "function"
    },
    {
      "constant": false,
      "inputs": [
        {
          "name": "to",
          "type": "address"
        },
        {
          "name": "tokens",
          "type": "uint256"
        }
      ],
      "name": "transfer",
      "outputs": [
        {
          "name": "success",
          "type": "bool"
        }
      ],
      "payable": false,
      "stateMutability": "nonpayable",
      "type": "function"
    },
    {
      "constant": true,
      "inputs": [],
      "name": "gameCurrencyProductionAmountOnCollect",
      "outputs": [
        {
          "name": "",
          "type": "uint256"
        }
      ],
      "payable": false,
      "stateMutability": "view",
      "type": "function"
    },
    {
      "constant": true,
      "inputs": [],
      "name": "timeToCollect",
      "outputs": [
        {
          "name": "",
          "type": "uint256"
        }
      ],
      "payable": false,
      "stateMutability": "view",
      "type": "function"
    },
    {
      "constant": true,
      "inputs": [
        {
          "name": "",
          "type": "address"
        }
      ],
      "name": "addressAllowedToGetTokenBeforeSeconds",
      "outputs": [
        {
          "name": "",
          "type": "uint256"
        }
      ],
      "payable": false,
      "stateMutability": "view",
      "type": "function"
    },
    {
      "constant": false,
      "inputs": [
        {
          "name": "spender",
          "type": "address"
        },
        {
          "name": "tokens",
          "type": "uint256"
        },
        {
          "name": "data",
          "type": "bytes"
        }
      ],
      "name": "approveAndCall",
      "outputs": [
        {
          "name": "success",
          "type": "bool"
        }
      ],
      "payable": false,
      "stateMutability": "nonpayable",
      "type": "function"
    },
    {
      "constant": true,
      "inputs": [],
      "name": "newOwner",
      "outputs": [
        {
          "name": "",
          "type": "address"
        }
      ],
      "payable": false,
      "stateMutability": "view",
      "type": "function"
    },
    {
      "constant": false,
      "inputs": [
        {
          "name": "tokenAddress",
          "type": "address"
        },
        {
          "name": "tokens",
          "type": "uint256"
        }
      ],
      "name": "transferAnyERC20Token",
      "outputs": [
        {
          "name": "success",
          "type": "bool"
        }
      ],
      "payable": false,
      "stateMutability": "nonpayable",
      "type": "function"
    },
    {
      "constant": true,
      "inputs": [
        {
          "name": "tokenOwner",
          "type": "address"
        },
        {
          "name": "spender",
          "type": "address"
        }
      ],
      "name": "allowance",
      "outputs": [
        {
          "name": "remaining",
          "type": "uint256"
        }
      ],
      "payable": false,
      "stateMutability": "view",
      "type": "function"
    },
    {
      "constant": false,
      "inputs": [
        {
          "name": "_newOwner",
          "type": "address"
        }
      ],
      "name": "transferOwnership",
      "outputs": [],
      "payable": false,
      "stateMutability": "nonpayable",
      "type": "function"
    },
    {
      "inputs": [
        {
          "name": "tokenAddresses",
          "type": "address[]"
        },
        {
          "name": "amountsNecessary",
          "type": "uint256[]"
        },
        {
          "name": "_symbol",
          "type": "string"
        },
        {
          "name": "_name",
          "type": "string"
        },
        {
          "name": "_secondsToCollect",
          "type": "uint256"
        },
        {
          "name": "_pricePerToken",
          "type": "uint256"
        },
        {
          "name": "_gameCurrencyAddress",
          "type": "address"
        },
        {
          "name": "_gameCurrencyProductionAmountOnCollect",
          "type": "uint256"
        },
        {
          "name": "_levelUpgradeCost",
          "type": "uint256[]"
        },
        {
          "name": "_levelProductionAmount",
          "type": "uint256[]"
        },
        {
          "name": "_levelProductionTime",
          "type": "uint256[]"
        }
      ],
      "payable": false,
      "stateMutability": "nonpayable",
      "type": "constructor"
    },
    {
      "payable": true,
      "stateMutability": "payable",
      "type": "fallback"
    },
    {
      "anonymous": false,
      "inputs": [
        {
          "indexed": true,
          "name": "_from",
          "type": "address"
        },
        {
          "indexed": true,
          "name": "_to",
          "type": "address"
        }
      ],
      "name": "OwnershipTransferred",
      "type": "event"
    },
    {
      "anonymous": false,
      "inputs": [
        {
          "indexed": true,
          "name": "from",
          "type": "address"
        },
        {
          "indexed": true,
          "name": "to",
          "type": "address"
        },
        {
          "indexed": false,
          "name": "tokens",
          "type": "uint256"
        }
      ],
      "name": "Transfer",
      "type": "event"
    },
    {
      "anonymous": false,
      "inputs": [
        {
          "indexed": true,
          "name": "tokenOwner",
          "type": "address"
        },
        {
          "indexed": true,
          "name": "spender",
          "type": "address"
        },
        {
          "indexed": false,
          "name": "tokens",
          "type": "uint256"
        }
      ],
      "name": "Approval",
      "type": "event"
    },
    {
      "constant": false,
      "inputs": [
        {
          "name": "_newPrice",
          "type": "uint256"
        }
      ],
      "name": "setPricePerToken",
      "outputs": [],
      "payable": false,
      "stateMutability": "nonpayable",
      "type": "function"
    },
    {
      "constant": false,
      "inputs": [],
      "name": "buyToken",
      "outputs": [],
      "payable": true,
      "stateMutability": "payable",
      "type": "function"
    },
    {
      "constant": false,
      "inputs": [],
      "name": "withdrawEther",
      "outputs": [],
      "payable": false,
      "stateMutability": "nonpayable",
      "type": "function"
    },
    {
      "constant": true,
      "inputs": [],
      "name": "getTokenDependency",
      "outputs": [
        {
          "name": "",
          "type": "address[]"
        },
        {
          "name": "",
          "type": "uint256[]"
        }
      ],
      "payable": false,
      "stateMutability": "view",
      "type": "function"
    },
    {
      "constant": true,
      "inputs": [],
      "name": "tokenCollectable",
      "outputs": [
        {
          "name": "",
          "type": "bool"
        }
      ],
      "payable": false,
      "stateMutability": "view",
      "type": "function"
    },
    {
      "constant": true,
      "inputs": [],
      "name": "timeUntilCollectable",
      "outputs": [
        {
          "name": "",
          "type": "uint256"
        }
      ],
      "payable": false,
      "stateMutability": "view",
      "type": "function"
    },
    {
      "constant": true,
      "inputs": [],
      "name": "timeUntilCollectionExpires",
      "outputs": [
        {
          "name": "",
          "type": "uint256"
        }
      ],
      "payable": false,
      "stateMutability": "view",
      "type": "function"
    },
    {
      "constant": true,
      "inputs": [],
      "name": "getTimeToCollectBasedOnLevel",
      "outputs": [
        {
          "name": "",
          "type": "uint256"
        }
      ],
      "payable": false,
      "stateMutability": "view",
      "type": "function"
    },
    {
      "constant": true,
      "inputs": [],
      "name": "getCollectionAmountBasedOnLevel",
      "outputs": [
        {
          "name": "",
          "type": "uint256"
        }
      ],
      "payable": false,
      "stateMutability": "view",
      "type": "function"
    },
    {
      "constant": true,
      "inputs": [],
      "name": "getLevelUpgradeCost",
      "outputs": [
        {
          "name": "",
          "type": "uint256"
        }
      ],
      "payable": false,
      "stateMutability": "view",
      "type": "function"
    },
    {
      "constant": false,
      "inputs": [],
      "name": "startProducing",
      "outputs": [],
      "payable": false,
      "stateMutability": "nonpayable",
      "type": "function"
    },
    {
      "constant": false,
      "inputs": [],
      "name": "levelUp",
      "outputs": [],
      "payable": false,
      "stateMutability": "nonpayable",
      "type": "function"
    },
    {
      "constant": false,
      "inputs": [],
      "name": "collectToken",
      "outputs": [],
      "payable": false,
      "stateMutability": "nonpayable",
      "type": "function"
    }
  ],
  "bytecode": "0x6080604052610e1060085560006009556005600d553480156200002157600080fd5b50604051620035f8380380620035f883398101806040526101608110156200004857600080fd5b8101908080516401000000008111156200006157600080fd5b828101905060208101848111156200007857600080fd5b81518560208202830111640100000000821117156200009657600080fd5b50509291906020018051640100000000811115620000b357600080fd5b82810190506020810184811115620000ca57600080fd5b8151856020820283011164010000000082111715620000e857600080fd5b505092919060200180516401000000008111156200010557600080fd5b828101905060208101848111156200011c57600080fd5b81518560018202830111640100000000821117156200013a57600080fd5b505092919060200180516401000000008111156200015757600080fd5b828101905060208101848111156200016e57600080fd5b81518560018202830111640100000000821117156200018c57600080fd5b5050929190602001805190602001909291908051906020019092919080519060200190929190805190602001909291908051640100000000811115620001d157600080fd5b82810190506020810184811115620001e857600080fd5b81518560208202830111640100000000821117156200020657600080fd5b505092919060200180516401000000008111156200022357600080fd5b828101905060208101848111156200023a57600080fd5b81518560208202830111640100000000821117156200025857600080fd5b505092919060200180516401000000008111156200027557600080fd5b828101905060208101848111156200028c57600080fd5b8151856020820283011164010000000082111715620002aa57600080fd5b5050929190505050336000806101000a81548173ffffffffffffffffffffffffffffffffffffffff021916908373ffffffffffffffffffffffffffffffffffffffff1602179055506040805190810160405280600481526020017f576f6f6400000000000000000000000000000000000000000000000000000000815250600290805190602001906200033f9291906200080c565b506040805190810160405280601e81526020017f5468697320697320776f6f6420666f7220426c6f636b736574746c6572730000815250600390805190602001906200038d9291906200080c565b506000600460006101000a81548160ff021916908360ff160217905550600460009054906101000a900460ff1660ff16600a0a600002600581905550600554600660008060009054906101000a900473ffffffffffffffffffffffffffffffffffffffff1673ffffffffffffffffffffffffffffffffffffffff1673ffffffffffffffffffffffffffffffffffffffff168152602001908152602001600020819055506000809054906101000a900473ffffffffffffffffffffffffffffffffffffffff1673ffffffffffffffffffffffffffffffffffffffff16600073ffffffffffffffffffffffffffffffffffffffff167fddf252ad1be2c89b69c2b068fc378daa952ba7f163c4a11628f55a4df523b3ef6005546040518082815260200191505060405180910390a389518b51141515620004c757fe5b600d548251141515620004d657fe5b600d548151141515620004e557fe5b600d548351141515620004f457fe5b88600290805190602001906200050c9291906200080c565b508760039080519060200190620005259291906200080c565b50866008819055508560098190555082600f90805190602001906200054c92919062000893565b5084601360006101000a81548173ffffffffffffffffffffffffffffffffffffffff021916908373ffffffffffffffffffffffffffffffffffffffff1602179055508160109080519060200190620005a692919062000893565b508060119080519060200190620005bf92919062000893565b508360128190555060008090505b8b51811015620006cf57620005e1620008e5565b60408051908101604052808e84815181101515620005fb57fe5b9060200190602002015173ffffffffffffffffffffffffffffffffffffffff1681526020018d848151811015156200062f57fe5b906020019060200201518152509050600a819080600181540180825580915050906001820390600052602060002090600202016000909192909190915060008201518160000160006101000a81548173ffffffffffffffffffffffffffffffffffffffff021916908373ffffffffffffffffffffffffffffffffffffffff16021790555060208201518160010155505050508080600101915050620005cd565b506000600460006101000a81548160ff021916908360ff160217905550600460009054906101000a900460ff1660ff16600a0a600002600581905550600554600660008060009054906101000a900473ffffffffffffffffffffffffffffffffffffffff1673ffffffffffffffffffffffffffffffffffffffff1673ffffffffffffffffffffffffffffffffffffffff168152602001908152602001600020819055506000809054906101000a900473ffffffffffffffffffffffffffffffffffffffff1673ffffffffffffffffffffffffffffffffffffffff16600073ffffffffffffffffffffffffffffffffffffffff167fddf252ad1be2c89b69c2b068fc378daa952ba7f163c4a11628f55a4df523b3ef6005546040518082815260200191505060405180910390a350505050505050505050506200093d565b828054600181600116156101000203166002900490600052602060002090601f016020900481019282601f106200084f57805160ff191683800117855562000880565b8280016001018555821562000880579182015b828111156200087f57825182559160200191906001019062000862565b5b5090506200088f919062000915565b5090565b828054828255906000526020600020908101928215620008d2579160200282015b82811115620008d1578251825591602001919060010190620008b4565b5b509050620008e1919062000915565b5090565b6040805190810160405280600073ffffffffffffffffffffffffffffffffffffffff168152602001600081525090565b6200093a91905b80821115620009365760008160009055506001016200091c565b5090565b90565b612cab806200094d6000396000f3fe6080604052600436106101d2576000357c0100000000000000000000000000000000000000000000000000000000900480630636c301146101d757806306fdde0314610202578063095ea7b3146102925780630c197f9a146103055780630c6f43281461035457806318160ddd1461036b5780631d87a60b1461039657806323b872dd146103fb5780632bf2762f1461048e578063313ce567146104c9578063373a8ce9146104fa5780634ea1ecf914610525578063515b93b11461053c5780635ee3b3c91461058b57806370a082311461060d5780637362377b1461067257806379ba5097146106895780637b1b1de6146106a0578063810de062146106cb5780638da5cb5b1461071a57806395d89b411461077157806397ef5aec14610801578063a482171914610866578063a9059cbb14610870578063ac4e5585146108e3578063ac9624bb1461090e578063ae24ce8d14610939578063ae5742e514610964578063bfb6e974146109c9578063cae9ca51146109f4578063cc4cc05f14610afe578063ce11465b14610b15578063d4ee1d9014610bc9578063dc39d06d14610c20578063dd62ed3e14610c93578063ecf4aaaa14610d18578063efff3ac714610d43578063f2fde38b14610d72575b600080fd5b3480156101e357600080fd5b506101ec610dc3565b6040518082815260200191505060405180910390f35b34801561020e57600080fd5b50610217610e23565b6040518080602001828103825283818151815260200191508051906020019080838360005b8381101561025757808201518184015260208101905061023c565b50505050905090810190601f1680156102845780820380516001836020036101000a031916815260200191505b509250505060405180910390f35b34801561029e57600080fd5b506102eb600480360360408110156102b557600080fd5b81019080803573ffffffffffffffffffffffffffffffffffffffff16906020019092919080359060200190929190505050610ec1565b604051808215151515815260200191505060405180910390f35b34801561031157600080fd5b5061033e6004803603602081101561032857600080fd5b8101908080359060200190929190505050610fb3565b6040518082815260200191505060405180910390f35b34801561036057600080fd5b50610369610fd6565b005b34801561037757600080fd5b50610380611384565b6040518082815260200191505060405180910390f35b3480156103a257600080fd5b506103e5600480360360208110156103b957600080fd5b81019080803573ffffffffffffffffffffffffffffffffffffffff1690602001909291905050506113df565b6040518082815260200191505060405180910390f35b34801561040757600080fd5b506104746004803603606081101561041e57600080fd5b81019080803573ffffffffffffffffffffffffffffffffffffffff169060200190929190803573ffffffffffffffffffffffffffffffffffffffff169060200190929190803590602001909291905050506113f7565b604051808215151515815260200191505060405180910390f35b34801561049a57600080fd5b506104c7600480360360208110156104b157600080fd5b81019080803590602001909291905050506116a2565b005b3480156104d557600080fd5b506104de611707565b604051808260ff1660ff16815260200191505060405180910390f35b34801561050657600080fd5b5061050f61171a565b6040518082815260200191505060405180910390f35b34801561053157600080fd5b5061053a611761565b005b34801561054857600080fd5b506105756004803603602081101561055f57600080fd5b810190808035906020019092919050505061197a565b6040518082815260200191505060405180910390f35b34801561059757600080fd5b506105c4600480360360208110156105ae57600080fd5b810190808035906020019092919050505061199d565b604051808373ffffffffffffffffffffffffffffffffffffffff1673ffffffffffffffffffffffffffffffffffffffff1681526020018281526020019250505060405180910390f35b34801561061957600080fd5b5061065c6004803603602081101561063057600080fd5b81019080803573ffffffffffffffffffffffffffffffffffffffff1690602001909291905050506119f0565b6040518082815260200191505060405180910390f35b34801561067e57600080fd5b50610687611a39565b005b34801561069557600080fd5b5061069e611af4565b005b3480156106ac57600080fd5b506106b5611c93565b6040518082815260200191505060405180910390f35b3480156106d757600080fd5b50610704600480360360208110156106ee57600080fd5b8101908080359060200190929190505050611c99565b6040518082815260200191505060405180910390f35b34801561072657600080fd5b5061072f611cbc565b604051808273ffffffffffffffffffffffffffffffffffffffff1673ffffffffffffffffffffffffffffffffffffffff16815260200191505060405180910390f35b34801561077d57600080fd5b50610786611ce1565b6040518080602001828103825283818151815260200191508051906020019080838360005b838110156107c65780820151818401526020810190506107ab565b50505050905090810190601f1680156107f35780820380516001836020036101000a031916815260200191505b509250505060405180910390f35b34801561080d57600080fd5b506108506004803603602081101561082457600080fd5b81019080803573ffffffffffffffffffffffffffffffffffffffff169060200190929190505050611d7f565b6040518082815260200191505060405180910390f35b61086e611d97565b005b34801561087c57600080fd5b506108c96004803603604081101561089357600080fd5b81019080803573ffffffffffffffffffffffffffffffffffffffff16906020019092919080359060200190929190505050611f08565b604051808215151515815260200191505060405180910390f35b3480156108ef57600080fd5b506108f86120a3565b6040518082815260200191505060405180910390f35b34801561091a57600080fd5b506109236120a9565b6040518082815260200191505060405180910390f35b34801561094557600080fd5b5061094e6120af565b6040518082815260200191505060405180910390f35b34801561097057600080fd5b506109b36004803603602081101561098757600080fd5b81019080803573ffffffffffffffffffffffffffffffffffffffff1690602001909291905050506120f6565b6040518082815260200191505060405180910390f35b3480156109d557600080fd5b506109de61210e565b6040518082815260200191505060405180910390f35b348015610a0057600080fd5b50610ae460048036036060811015610a1757600080fd5b81019080803573ffffffffffffffffffffffffffffffffffffffff1690602001909291908035906020019092919080359060200190640100000000811115610a5e57600080fd5b820183602082011115610a7057600080fd5b80359060200191846001830284011164010000000083111715610a9257600080fd5b91908080601f016020809104026020016040519081016040528093929190818152602001838380828437600081840152601f19601f82011690508083019250505050505050919291929050505061216e565b604051808215151515815260200191505060405180910390f35b348015610b0a57600080fd5b50610b136123bd565b005b348015610b2157600080fd5b50610b2a612688565b604051808060200180602001838103835285818151815260200191508051906020019060200280838360005b83811015610b71578082015181840152602081019050610b56565b50505050905001838103825284818151815260200191508051906020019060200280838360005b83811015610bb3578082015181840152602081019050610b98565b5050505090500194505050505060405180910390f35b348015610bd557600080fd5b50610bde612858565b604051808273ffffffffffffffffffffffffffffffffffffffff1673ffffffffffffffffffffffffffffffffffffffff16815260200191505060405180910390f35b348015610c2c57600080fd5b50610c7960048036036040811015610c4357600080fd5b81019080803573ffffffffffffffffffffffffffffffffffffffff1690602001909291908035906020019092919050505061287e565b604051808215151515815260200191505060405180910390f35b348015610c9f57600080fd5b50610d0260048036036040811015610cb657600080fd5b81019080803573ffffffffffffffffffffffffffffffffffffffff169060200190929190803573ffffffffffffffffffffffffffffffffffffffff1690602001909291905050506129e2565b6040518082815260200191505060405180910390f35b348015610d2457600080fd5b50610d2d612a69565b6040518082815260200191505060405180910390f35b348015610d4f57600080fd5b50610d58612ac9565b604051808215151515815260200191505060405180910390f35b348015610d7e57600080fd5b50610dc160048036036020811015610d9557600080fd5b81019080803573ffffffffffffffffffffffffffffffffffffffff169060200190929190505050612ba8565b005b60006011600e60003373ffffffffffffffffffffffffffffffffffffffff1673ffffffffffffffffffffffffffffffffffffffff16815260200190815260200160002054815481101515610e1357fe5b9060005260206000200154905090565b60038054600181600116156101000203166002900480601f016020809104026020016040519081016040528092919081815260200182805460018160011615610100020316600290048015610eb95780601f10610e8e57610100808354040283529160200191610eb9565b820191906000526020600020905b815481529060010190602001808311610e9c57829003601f168201915b505050505081565b600081600760003373ffffffffffffffffffffffffffffffffffffffff1673ffffffffffffffffffffffffffffffffffffffff16815260200190815260200160002060008573ffffffffffffffffffffffffffffffffffffffff1673ffffffffffffffffffffffffffffffffffffffff168152602001908152602001600020819055508273ffffffffffffffffffffffffffffffffffffffff163373ffffffffffffffffffffffffffffffffffffffff167f8c5be1e5ebec7d5bd14f71427d1e84f3dd0314c0f7b2291e5b200ac8c7c3b925846040518082815260200191505060405180910390a36001905092915050565b600f81815481101515610fc257fe5b906000526020600020016000915090505481565b610fde612ac9565b151515611079576040517f08c379a000000000000000000000000000000000000000000000000000000000815260040180806020018281038252602f8152602001807f546f6b656e206d696e7461626c652c207761697420612062697420616e64206381526020017f6f6c6c656374206974206669727374000000000000000000000000000000000081525060400191505060405180910390fd5b60008090505b600a805490508110156112e357600a8181548110151561109b57fe5b906000526020600020906002020160000160009054906101000a900473ffffffffffffffffffffffffffffffffffffffff1673ffffffffffffffffffffffffffffffffffffffff166323b872dd336000600e60003373ffffffffffffffffffffffffffffffffffffffff1673ffffffffffffffffffffffffffffffffffffffff16815260200190815260200160002054600a8681548110151561113a57fe5b9060005260206000209060020201600101540a600a8681548110151561115c57fe5b906000526020600020906002020160010154016040518463ffffffff167c0100000000000000000000000000000000000000000000000000000000028152600401808473ffffffffffffffffffffffffffffffffffffffff1673ffffffffffffffffffffffffffffffffffffffff1681526020018373ffffffffffffffffffffffffffffffffffffffff1673ffffffffffffffffffffffffffffffffffffffff1681526020018281526020019350505050602060405180830381600087803b15801561122757600080fd5b505af115801561123b573d6000803e3d6000fd5b505050506040513d602081101561125157600080fd5b810190808051906020019092919050505015156112d6576040517f08c379a00000000000000000000000000000000000000000000000000000000081526004018080602001828103825260188152602001807f5472616e7366657220646964206e6f742073756363656564000000000000000081525060200191505060405180910390fd5b808060010191505061107f565b506112ec610dc3565b4201600b60003373ffffffffffffffffffffffffffffffffffffffff1673ffffffffffffffffffffffffffffffffffffffff1681526020019081526020016000208190555060085461133c610dc3565b420101600c60003373ffffffffffffffffffffffffffffffffffffffff1673ffffffffffffffffffffffffffffffffffffffff16815260200190815260200160002081905550565b60006113da600660008073ffffffffffffffffffffffffffffffffffffffff1673ffffffffffffffffffffffffffffffffffffffff16815260200190815260200160002054600554612c4790919063ffffffff16565b905090565b600b6020528060005260406000206000915090505481565b600061144b82600660008773ffffffffffffffffffffffffffffffffffffffff1673ffffffffffffffffffffffffffffffffffffffff16815260200190815260200160002054612c4790919063ffffffff16565b600660008673ffffffffffffffffffffffffffffffffffffffff1673ffffffffffffffffffffffffffffffffffffffff1681526020019081526020016000208190555061151d82600760008773ffffffffffffffffffffffffffffffffffffffff1673ffffffffffffffffffffffffffffffffffffffff16815260200190815260200160002060003373ffffffffffffffffffffffffffffffffffffffff1673ffffffffffffffffffffffffffffffffffffffff16815260200190815260200160002054612c4790919063ffffffff16565b600760008673ffffffffffffffffffffffffffffffffffffffff1673ffffffffffffffffffffffffffffffffffffffff16815260200190815260200160002060003373ffffffffffffffffffffffffffffffffffffffff1673ffffffffffffffffffffffffffffffffffffffff168152602001908152602001600020819055506115ef82600660008673ffffffffffffffffffffffffffffffffffffffff1673ffffffffffffffffffffffffffffffffffffffff16815260200190815260200160002054612c6390919063ffffffff16565b600660008573ffffffffffffffffffffffffffffffffffffffff1673ffffffffffffffffffffffffffffffffffffffff168152602001908152602001600020819055508273ffffffffffffffffffffffffffffffffffffffff168473ffffffffffffffffffffffffffffffffffffffff167fddf252ad1be2c89b69c2b068fc378daa952ba7f163c4a11628f55a4df523b3ef846040518082815260200191505060405180910390a3600190509392505050565b6000809054906101000a900473ffffffffffffffffffffffffffffffffffffffff1673ffffffffffffffffffffffffffffffffffffffff163373ffffffffffffffffffffffffffffffffffffffff161415156116fd57600080fd5b8060098190555050565b600460009054906101000a900460ff1681565b6000600b60003373ffffffffffffffffffffffffffffffffffffffff1673ffffffffffffffffffffffffffffffffffffffff16815260200190815260200160002054905090565b600d54600e60003373ffffffffffffffffffffffffffffffffffffffff1673ffffffffffffffffffffffffffffffffffffffff168152602001908152602001600020541015156117ad57fe5b601360009054906101000a900473ffffffffffffffffffffffffffffffffffffffff1673ffffffffffffffffffffffffffffffffffffffff1663d2fab6e833600f600e60003373ffffffffffffffffffffffffffffffffffffffff1673ffffffffffffffffffffffffffffffffffffffff1681526020019081526020016000205481548110151561183a57fe5b90600052602060002001546040518363ffffffff167c0100000000000000000000000000000000000000000000000000000000028152600401808373ffffffffffffffffffffffffffffffffffffffff1673ffffffffffffffffffffffffffffffffffffffff16815260200182815260200192505050600060405180830381600087803b1580156118ca57600080fd5b505af11580156118de573d6000803e3d6000fd5b505050506119356001600e60003373ffffffffffffffffffffffffffffffffffffffff1673ffffffffffffffffffffffffffffffffffffffff16815260200190815260200160002054612c6390919063ffffffff16565b600e60003373ffffffffffffffffffffffffffffffffffffffff1673ffffffffffffffffffffffffffffffffffffffff16815260200190815260200160002081905550565b60118181548110151561198957fe5b906000526020600020016000915090505481565b600a818154811015156119ac57fe5b90600052602060002090600202016000915090508060000160009054906101000a900473ffffffffffffffffffffffffffffffffffffffff16908060010154905082565b6000600660008373ffffffffffffffffffffffffffffffffffffffff1673ffffffffffffffffffffffffffffffffffffffff168152602001908152602001600020549050919050565b6000809054906101000a900473ffffffffffffffffffffffffffffffffffffffff1673ffffffffffffffffffffffffffffffffffffffff163373ffffffffffffffffffffffffffffffffffffffff16141515611a9457600080fd5b3373ffffffffffffffffffffffffffffffffffffffff166108fc3073ffffffffffffffffffffffffffffffffffffffff16319081150290604051600060405180830381858888f19350505050158015611af1573d6000803e3d6000fd5b50565b600160009054906101000a900473ffffffffffffffffffffffffffffffffffffffff1673ffffffffffffffffffffffffffffffffffffffff163373ffffffffffffffffffffffffffffffffffffffff16141515611b5057600080fd5b600160009054906101000a900473ffffffffffffffffffffffffffffffffffffffff1673ffffffffffffffffffffffffffffffffffffffff166000809054906101000a900473ffffffffffffffffffffffffffffffffffffffff1673ffffffffffffffffffffffffffffffffffffffff167f8be0079c531659141344cd1fd0a4f28419497f9722a3daafe3b4186f6b6457e060405160405180910390a3600160009054906101000a900473ffffffffffffffffffffffffffffffffffffffff166000806101000a81548173ffffffffffffffffffffffffffffffffffffffff021916908373ffffffffffffffffffffffffffffffffffffffff1602179055506000600160006101000a81548173ffffffffffffffffffffffffffffffffffffffff021916908373ffffffffffffffffffffffffffffffffffffffff160217905550565b60095481565b601081815481101515611ca857fe5b906000526020600020016000915090505481565b6000809054906101000a900473ffffffffffffffffffffffffffffffffffffffff1681565b60028054600181600116156101000203166002900480601f016020809104026020016040519081016040528092919081815260200182805460018160011615610100020316600290048015611d775780601f10611d4c57610100808354040283529160200191611d77565b820191906000526020600020905b815481529060010190602001808311611d5a57829003601f168201915b505050505081565b600e6020528060005260406000206000915090505481565b6000600954111515611da557fe5b600060095434811515611db457fe5b049050600081111515611e55576040517f08c379a00000000000000000000000000000000000000000000000000000000081526004018080602001828103825260388152602001807f5468652070726f76696465642045746865722d416d6f756e74206973206e6f7481526020017f20656e6f75676820746f20627579206f6e6520546f6b656e000000000000000081525060400191505060405180910390fd5b611e6a81600554612c6390919063ffffffff16565b600581905550611ec281600660003373ffffffffffffffffffffffffffffffffffffffff1673ffffffffffffffffffffffffffffffffffffffff16815260200190815260200160002054612c6390919063ffffffff16565b600660003373ffffffffffffffffffffffffffffffffffffffff1673ffffffffffffffffffffffffffffffffffffffff1681526020019081526020016000208190555050565b6000611f5c82600660003373ffffffffffffffffffffffffffffffffffffffff1673ffffffffffffffffffffffffffffffffffffffff16815260200190815260200160002054612c4790919063ffffffff16565b600660003373ffffffffffffffffffffffffffffffffffffffff1673ffffffffffffffffffffffffffffffffffffffff16815260200190815260200160002081905550611ff182600660008673ffffffffffffffffffffffffffffffffffffffff1673ffffffffffffffffffffffffffffffffffffffff16815260200190815260200160002054612c6390919063ffffffff16565b600660008573ffffffffffffffffffffffffffffffffffffffff1673ffffffffffffffffffffffffffffffffffffffff168152602001908152602001600020819055508273ffffffffffffffffffffffffffffffffffffffff163373ffffffffffffffffffffffffffffffffffffffff167fddf252ad1be2c89b69c2b068fc378daa952ba7f163c4a11628f55a4df523b3ef846040518082815260200191505060405180910390a36001905092915050565b60125481565b60085481565b6000600c60003373ffffffffffffffffffffffffffffffffffffffff1673ffffffffffffffffffffffffffffffffffffffff16815260200190815260200160002054905090565b600c6020528060005260406000206000915090505481565b6000600f600e60003373ffffffffffffffffffffffffffffffffffffffff1673ffffffffffffffffffffffffffffffffffffffff1681526020019081526020016000205481548110151561215e57fe5b9060005260206000200154905090565b600082600760003373ffffffffffffffffffffffffffffffffffffffff1673ffffffffffffffffffffffffffffffffffffffff16815260200190815260200160002060008673ffffffffffffffffffffffffffffffffffffffff1673ffffffffffffffffffffffffffffffffffffffff168152602001908152602001600020819055508373ffffffffffffffffffffffffffffffffffffffff163373ffffffffffffffffffffffffffffffffffffffff167f8c5be1e5ebec7d5bd14f71427d1e84f3dd0314c0f7b2291e5b200ac8c7c3b925856040518082815260200191505060405180910390a38373ffffffffffffffffffffffffffffffffffffffff16638f4ffcb1338530866040518563ffffffff167c0100000000000000000000000000000000000000000000000000000000028152600401808573ffffffffffffffffffffffffffffffffffffffff1673ffffffffffffffffffffffffffffffffffffffff1681526020018481526020018373ffffffffffffffffffffffffffffffffffffffff1673ffffffffffffffffffffffffffffffffffffffff16815260200180602001828103825283818151815260200191508051906020019080838360005b8381101561234b578082015181840152602081019050612330565b50505050905090810190601f1680156123785780820380516001836020036101000a031916815260200191505b5095505050505050600060405180830381600087803b15801561239a57600080fd5b505af11580156123ae573d6000803e3d6000fd5b50505050600190509392505050565b6123c5612ac9565b151561245f576040517f08c379a00000000000000000000000000000000000000000000000000000000081526004018080602001828103825260228152602001807f546f6b656e206e6f7420796574206d696e7461626c652c20776169742061206281526020017f697400000000000000000000000000000000000000000000000000000000000081525060400191505060405180910390fd5b6000600b60003373ffffffffffffffffffffffffffffffffffffffff1673ffffffffffffffffffffffffffffffffffffffff168152602001908152602001600020819055506000600c60003373ffffffffffffffffffffffffffffffffffffffff1673ffffffffffffffffffffffffffffffffffffffff168152602001908152602001600020819055506125056124f4612a69565b600554612c6390919063ffffffff16565b600581905550612564612516612a69565b600660003373ffffffffffffffffffffffffffffffffffffffff1673ffffffffffffffffffffffffffffffffffffffff16815260200190815260200160002054612c6390919063ffffffff16565b600660003373ffffffffffffffffffffffffffffffffffffffff1673ffffffffffffffffffffffffffffffffffffffff16815260200190815260200160002081905550601360009054906101000a900473ffffffffffffffffffffffffffffffffffffffff1673ffffffffffffffffffffffffffffffffffffffff16636a10d4d6336012546040518363ffffffff167c0100000000000000000000000000000000000000000000000000000000028152600401808373ffffffffffffffffffffffffffffffffffffffff1673ffffffffffffffffffffffffffffffffffffffff16815260200182815260200192505050600060405180830381600087803b15801561266e57600080fd5b505af1158015612682573d6000803e3d6000fd5b50505050565b6060806060600a805490506040519080825280602002602001820160405280156126c15781602001602082028038833980820191505090505b5090506060600a805490506040519080825280602002602001820160405280156126fa5781602001602082028038833980820191505090505b50905060008090505b600a8054905081101561284b576001600e60003373ffffffffffffffffffffffffffffffffffffffff1673ffffffffffffffffffffffffffffffffffffffff16815260200190815260200160002054600a8381548110151561276157fe5b9060005260206000209060020201600101540a600a8381548110151561278357fe5b906000526020600020906002020160010154010383828151811015156127a557fe5b9060200190602002018181525050600a818154811015156127c257fe5b906000526020600020906002020160000160009054906101000a900473ffffffffffffffffffffffffffffffffffffffff16828281518110151561280257fe5b9060200190602002019073ffffffffffffffffffffffffffffffffffffffff16908173ffffffffffffffffffffffffffffffffffffffff16815250508080600101915050612703565b5080829350935050509091565b600160009054906101000a900473ffffffffffffffffffffffffffffffffffffffff1681565b60008060009054906101000a900473ffffffffffffffffffffffffffffffffffffffff1673ffffffffffffffffffffffffffffffffffffffff163373ffffffffffffffffffffffffffffffffffffffff161415156128db57600080fd5b8273ffffffffffffffffffffffffffffffffffffffff1663a9059cbb6000809054906101000a900473ffffffffffffffffffffffffffffffffffffffff16846040518363ffffffff167c0100000000000000000000000000000000000000000000000000000000028152600401808373ffffffffffffffffffffffffffffffffffffffff1673ffffffffffffffffffffffffffffffffffffffff16815260200182815260200192505050602060405180830381600087803b15801561299f57600080fd5b505af11580156129b3573d6000803e3d6000fd5b505050506040513d60208110156129c957600080fd5b8101908080519060200190929190505050905092915050565b6000600760008473ffffffffffffffffffffffffffffffffffffffff1673ffffffffffffffffffffffffffffffffffffffff16815260200190815260200160002060008373ffffffffffffffffffffffffffffffffffffffff1673ffffffffffffffffffffffffffffffffffffffff16815260200190815260200160002054905092915050565b60006010600e60003373ffffffffffffffffffffffffffffffffffffffff1673ffffffffffffffffffffffffffffffffffffffff16815260200190815260200160002054815481101515612ab957fe5b9060005260206000200154905090565b600080600b60003373ffffffffffffffffffffffffffffffffffffffff1673ffffffffffffffffffffffffffffffffffffffff16815260200190815260200160002054118015612b58575042600b60003373ffffffffffffffffffffffffffffffffffffffff1673ffffffffffffffffffffffffffffffffffffffff1681526020019081526020016000205411155b8015612ba3575042600c60003373ffffffffffffffffffffffffffffffffffffffff1673ffffffffffffffffffffffffffffffffffffffff1681526020019081526020016000205410155b905090565b6000809054906101000a900473ffffffffffffffffffffffffffffffffffffffff1673ffffffffffffffffffffffffffffffffffffffff163373ffffffffffffffffffffffffffffffffffffffff16141515612c0357600080fd5b80600160006101000a81548173ffffffffffffffffffffffffffffffffffffffff021916908373ffffffffffffffffffffffffffffffffffffffff16021790555050565b6000828211151515612c5857600080fd5b818303905092915050565b60008183019050828110151515612c7957600080fd5b9291505056fea165627a7a723058203d7ea903b2e8267cf2bf4b145f921b936ba58e1768c0003304af9238be242fa40029",
  "source": "pragma solidity ^0.5.0;\r\n\r\nimport {FixedSupplyToken, ERC20Interface} from \"./Erc20Base.sol\";\r\nimport {GameResourceInterface} from \"./GameResourceBase.sol\";\r\nimport \"./GameCurrency.sol\";\r\n\r\ncontract MergerResource is FixedSupplyToken, GameResourceInterface {\r\n    uint public timeToCollect = 1 hours;\r\n    uint public pricePerToken = 0;\r\n    struct TokensRequest {\r\n        address originOfToken;\r\n        uint amountNecessary;\r\n    }\r\n    TokensRequest[] public tokensNecessary;\r\n    mapping(address => uint) public addressAllowedToGetTokenAfterSeconds;\r\n    mapping(address => uint) public addressAllowedToGetTokenBeforeSeconds;\r\n\r\n    uint maxLevel = 5;\r\n    mapping(address => uint) public factoryLevel;\r\n    uint[] public levelUpgradeCost;\r\n    uint[] public levelProductionAmount;\r\n    uint[] public levelProductionTime;\r\n    uint public gameCurrencyProductionAmountOnCollect;\r\n    GameCurrency gameCurrencyContract;\r\n    \r\n    constructor(address[] memory tokenAddresses, uint[] memory amountsNecessary, string memory _symbol, string memory _name, uint _secondsToCollect, uint _pricePerToken, GameCurrency _gameCurrencyAddress, uint _gameCurrencyProductionAmountOnCollect, uint[] memory _levelUpgradeCost, uint[] memory _levelProductionAmount, uint[] memory _levelProductionTime) public {\r\n        assert(tokenAddresses.length == amountsNecessary.length);\r\n        assert(_levelProductionAmount.length == maxLevel);\r\n        assert(_levelProductionTime.length == maxLevel);\r\n        assert(_levelUpgradeCost.length == maxLevel);\r\n        symbol = _symbol;\r\n        name = _name;\r\n        timeToCollect = _secondsToCollect;\r\n        pricePerToken = _pricePerToken;\r\n        levelUpgradeCost = _levelUpgradeCost;\r\n        gameCurrencyContract = _gameCurrencyAddress;\r\n        levelProductionAmount = _levelProductionAmount;\r\n        levelProductionTime = _levelProductionTime;\r\n        gameCurrencyProductionAmountOnCollect = _gameCurrencyProductionAmountOnCollect;\r\n\r\n        \r\n        for(uint key = 0; key < tokenAddresses.length; key++) {\r\n            TokensRequest memory tokensRequest = TokensRequest(tokenAddresses[key], amountsNecessary[key]);\r\n            tokensNecessary.push(tokensRequest);\r\n        }\r\n        decimals = 0;\r\n        _totalSupply = 0 * 10**uint(decimals); //will be generated when minted\r\n        balances[owner] = _totalSupply;\r\n        emit Transfer(address(0), owner, _totalSupply);\r\n    }\r\n\r\n    function setPricePerToken(uint _newPrice) public onlyOwner {\r\n        pricePerToken = _newPrice;\r\n    }\r\n\r\n    function buyToken() public payable {\r\n        assert(pricePerToken > 0);\r\n        uint tokenAmount = msg.value / pricePerToken;\r\n        require(tokenAmount > 0, \"The provided Ether-Amount is not enough to buy one Token\");\r\n        _totalSupply = _totalSupply.add(tokenAmount);\r\n        balances[msg.sender] = balances[msg.sender].add(tokenAmount);\r\n    }\r\n\r\n    function withdrawEther() onlyOwner public {\r\n        msg.sender.transfer(address(this).balance);\r\n    }\r\n\r\n    function getTokenDependency() public view returns(address[] memory, uint[] memory) {\r\n        uint[] memory amounts = new uint[](tokensNecessary.length);\r\n        address[] memory tokensAddresses = new address[](tokensNecessary.length);\r\n        for(uint i = 0; i < tokensNecessary.length; i++) {\r\n            amounts[i] = (tokensNecessary[i].amountNecessary + (tokensNecessary[i].amountNecessary**factoryLevel[msg.sender])-1);\r\n            tokensAddresses[i] = tokensNecessary[i].originOfToken;\r\n        }\r\n        return (tokensAddresses, amounts);\r\n    }\r\n    \r\n    function tokenCollectable() public view returns(bool){\r\n        return (addressAllowedToGetTokenAfterSeconds[msg.sender] > 0 && addressAllowedToGetTokenAfterSeconds[msg.sender] <= now && addressAllowedToGetTokenBeforeSeconds[msg.sender] >= now);\r\n    }\r\n    \r\n    function timeUntilCollectable() public view returns(uint) {\r\n        return addressAllowedToGetTokenAfterSeconds[msg.sender];\r\n    }\r\n    \r\n    function timeUntilCollectionExpires() public view returns(uint) {\r\n        return addressAllowedToGetTokenBeforeSeconds[msg.sender];\r\n    }\r\n\r\n    function getTimeToCollectBasedOnLevel() public view returns(uint) {\r\n        return levelProductionTime[factoryLevel[msg.sender]];\r\n    }\r\n\r\n    function getCollectionAmountBasedOnLevel() public view returns(uint) {\r\n        return levelProductionAmount[factoryLevel[msg.sender]];\r\n    }\r\n\r\n    function getLevelUpgradeCost() public view returns(uint) {\r\n        return levelUpgradeCost[factoryLevel[msg.sender]];\r\n    }\r\n    \r\n    function startProducing() public {\r\n        require(!tokenCollectable(), \"Token mintable, wait a bit and collect it first\");\r\n        for(uint key = 0; key < tokensNecessary.length; key++) {\r\n            require(ERC20Interface(tokensNecessary[key].originOfToken).transferFrom(msg.sender, address(0x0), (tokensNecessary[key].amountNecessary + (tokensNecessary[key].amountNecessary**factoryLevel[msg.sender]))), \"Transfer did not succeed\");\r\n        }\r\n\r\n       \r\n        addressAllowedToGetTokenAfterSeconds[msg.sender] = now + getTimeToCollectBasedOnLevel();\r\n        addressAllowedToGetTokenBeforeSeconds[msg.sender] = now + getTimeToCollectBasedOnLevel() + timeToCollect;\r\n    }\r\n\r\n    function levelUp() public {\r\n        assert(factoryLevel[msg.sender] < maxLevel);\r\n        gameCurrencyContract.destroyTokenFor(msg.sender,levelUpgradeCost[factoryLevel[msg.sender]]); //going to throw an exception if not enough game tokens are available. No need to double check here.\r\n        factoryLevel[msg.sender] = factoryLevel[msg.sender].add(1);\r\n    }\r\n    \r\n    function collectToken() public {\r\n        require(tokenCollectable(), \"Token not yet mintable, wait a bit\");\r\n        addressAllowedToGetTokenAfterSeconds[msg.sender] = 0;\r\n        addressAllowedToGetTokenBeforeSeconds[msg.sender] = 0;\r\n        _totalSupply = _totalSupply.add(getCollectionAmountBasedOnLevel());\r\n        balances[msg.sender] = balances[msg.sender].add(getCollectionAmountBasedOnLevel());\r\n        gameCurrencyContract.createToken(msg.sender, gameCurrencyProductionAmountOnCollect);\r\n    }\r\n    \r\n}",
  "sourcePath": "D:\\tmp\\legame\\contracts\\MergerResource.sol",
  "compiler": {
    "name": "solc",
    "version": "0.5.1+commit.c8a2cb62.Emscripten.clang"
  },
  "schemaVersion": "3.0.0-beta.2",
  "updatedAt": "2018-12-12T15:37:53.959Z",
  "devdoc": {
    "methods": {}
  },
  "userdoc": {
    "methods": {}
  }
}